:100000000C942A000C9447000C9447000C94470071
:100010000C9447000C9447000C9447000C94470044
:100020000C9447000C9447000C9447000C94EC008F
:100030000C9447000C9447000C9447000C94470024
:100040000C9447000C9447000C9447000C94470014
:100050000C94470011241FBECFE5D8E0DEBFCDBF12
:1000600020E0A6E6B0E001C01D92AB36B207E1F792
:1000700010E0A0E6B0E0E6ECFEE002C005900D92D4
:10008000A636B107D9F70E94FD000C9461070C94C5
:10009000000090BD89B988E18AB98EE880BD0895D5
:1000A0005D9BFECF8CB908952B013C0120E030E030
:1000B000A9010E949604882324F477FA709477F8B3
:1000C00070940F2EFAE08F2E912CA12CB12CF02DD4
:1000D00081E60E9450002FEF8FE794E0215080408E
:1000E0009040E1F700C0000020E836E948E15BE419
:1000F000C301B2010E94B1050E940D056B017C0194
:1001000025E93FEB46ED53E3C301B2010E9496049B
:1001100088231CF481E70E9450002DEB37E346E86A
:1001200055E3C301B2010E94960488231CF48AE7B8
:100130000E9450002CEA35EC47E257E3C301B201BC
:100140000E94960488231CF484E60E945000C11487
:10015000D104E104F10409F4BBCFCC2DC701B601F1
:10016000A50194010E941E06C22ED32EE42EF52E68
:1001700080E38C0F220F922F990F990F290F821B6A
:100180000E9450002FEF8FEB96E02150804090406E
:10019000E1F700C0000087E70E9450002FEF8FE7D3
:1001A00094E0215080409040E1F700C00000C1146D
:1001B000D104E104F10489F68BCF83B783BF83B701
:1001C00083BF83B7816083BF89B7816089BF78941B
:1001D00012BE1092660008951F920F920FB60F92F2
:1001E00011248F93809166008F5F809366008F91BA
:1001F0000F900FBE0F901F901895CF93DF93CDB740
:10020000DEB76C970FB6F894DEBF0FBECDBF8FE59B
:1002100090E00E9449000E94DD0081E60E945000AB
:1002200086E090E00E9440062C018F8B588E8C0156
:100230000A5F1F4F9A8389838CE090E00E944006FA
:10024000A981BA818D939D93BA83A983A017B10721
:1002500099F786E090E00E944006988B8F878CE0AB
:1002600090E00E9440068B8B9C8BBF85B98FE889FC
:10027000EA8F2F8538892A5F3F4F0F8518893A8387
:1002800029838CE090E00E944006D8018D939D93D5
:100290008D01E981FA81AE17BF0799F782E60E94C6
:1002A000500083E60E945000FFEF2FE734E0F1504A
:1002B00020403040E1F700C00000D201ED91FC91F8
:1002C00080E090E0A0E8BFE380839183A283B383C2
:1002D00040E050E060E071E44483558366837783B7
:1002E00080E090E0A0EEB0E480879187A287B3879A
:1002F000D2011296ED91FC91139780E090E0A0E876
:10030000B0E480839183A283B38314821582168222
:10031000178280E090E0A0ECB0E480879187A2870C
:10032000B387D2011496ED91FC91159780E090E08F
:10033000A0EAB0E480839183A283B383448355838E
:100340006683778380879187A287B38789E70E9436
:10035000500084E60E945000AF85B88930E040E04C
:1003600050E060E87FE3932F1EC098130AC0ED9120
:10037000FC911197E20FF31F4083518362837383D3
:1003800009C0ED91FC911197E20FF31F10821182C9
:10039000128213828F5F2C5F3F4F833031F79F5F54
:1003A0001296933021F020E030E080E0DECF85E649
:1003B0000E945000BFEFEFE7F4E0B150E040F040A2
:1003C000E1F700C000002F8538893D872C875A8AC5
:1003D000498A212C312C19863FEF8FE794E0315068
:1003E00080409040E1F700C0000089E60E94500084
:1003F000AFEFBFE7E4E0A150B040E040E1F700C05C
:100400000000A989BA890D911D91BA8BA98BF801B9
:10041000E20DF31DFE83ED83C080D180E280F38086
:10042000F985FF5FFE87F33028F56984F983298118
:10043000E22FF0E0EE0FFF1FE40DF51D0190F081BB
:10044000E02DE20DF31D80809180A280B380A50194
:1004500094015F77C701B6019F770E9496048823B5
:100460001CF469807501640139813F5F3983333041
:10047000F1F601C069848AE60E9450008FEF9FE781
:10048000A4E081509040A040E1F700C00000862D1C
:1004900090E0880F991FF201E80FF91F60817181C8
:1004A000AB88BC88FB010A871B87605F7F4F4A2DA2
:1004B0005B2D3801BA82A982C080D180E280F380AE
:1004C000DA01CD92DD92ED92FD92AD01D3018D90D6
:1004D0009D90AD90BC90139781929192A192B19210
:1004E000CD92DD92ED92FD923D016E177F0721F7CF
:1004F000A980BA80EF85F889E80FF91F8081918182
:10050000EC85FD85F887EF83C080D180FC014096A3
:10051000760135014081518162817381D3014D9310
:100520005D936D937D933D01D7018D909D90AD902E
:10053000BC90139781929192A192B1924D935D9349
:100540006D937D937D018E179F0721F78BE60E94A7
:100550005000BFEFEFE7F4E0B150E040F040E1F7CA
:1005600000C00000AD81BE818D909D90AD90BC908B
:100570001A8219820F2EF0E37F2EF02D81E70E9460
:100580005000872D0E945000FFEF2FE734E0F1501C
:1005900020403040E1F700C00000A5019401D801DF
:1005A0006D917D918D919C910E949B04F8016193C6
:1005B0007193819391938F01E980FA80EC0CFD1C7B
:1005C000A5019401D7016D917D918D919C910E941F
:1005D0009B04F701608371838283938373942981E1
:1005E0003A812C5F3F4F3A8329832C30310531F615
:1005F0008CE60E9450003FEF8FE794E0315080403E
:100600009040E1F700C00000C98CDA8CAF89AD835F
:10061000B88DBE83612CE985E05DE9835E8A4D8AF1
:1006200079845E2E8DE60E945000FFEF2FE734E0C4
:10063000F15020403040E1F700C000000F2EF0E301
:100640008F2EF02D860C882D0E9450008FEF9FE793
:10065000A4E081509040A040E1F700C00000882D48
:100660000E945000BFEFEFE7F4E0B150E040F040EF
:10067000E1F700C00000882D0E9450002FEF3FE7F7
:1006800084E0215030408040E1F700C00000AD819F
:10069000BE810D911D91BE83AD83F801E20DF31D66
:1006A00080819181A281B38189839A83AB83BC834A
:1006B000EA84FB841C8E1B8E0F2EF0E39F2EF02D00
:1006C0008AE70E94500083E30E945000BFEFEFE7EB
:1006D000F4E0B150E040F040E1F700C00000882DA8
:1006E0000E945000892D0E945000852D0E945000CC
:1006F0008AE70E9450002FEF3FE784E0215030400E
:100700008040E1F700C00000761004C08FE60E9430
:10071000500059C080E70E9450009FEFAFE7B4E05F
:100720009150A040B040E1F700C00000F7012191D6
:100730003191419151917F0169817A818B819C81B5
:100740000E94B1059B01AC01D8016D917D918D9105
:100750009C910E942904F801619371938193919374
:100760008F01D601AD90BC90EB8DFC8DAE0EBF1EFF
:10077000AF81B885ED91FC912B8D3C8DE20FF31F7D
:10078000208131814281538169817A818B819C8171
:100790000E94B1059B01AC01D5016D917D918D91B8
:1007A0009C910E942904F501608371838283938365
:1007B00093942B8D3C8D2C5F3F4F3C8F2B8F2C3097
:1007C000310509F07DCF639432E0C30ED11C83E084
:1007D000681228CF4D885E8894E0290E311CAC85C4
:1007E000BD851296BD87AC87BE85B987B33009F049
:1007F000F3CD86E60E94500082B78091660087E7BD
:100800000E945000EFEFFFE724E0E150F04020406D
:10081000E1F700C0000087E70E94500087E70E94D0
:1008200050003FEF8FE794E0315080409040E1F777
:1008300000C0000087E70E945000AF85B88912967B
:10084000ED91FC91139764817581868197810E9457
:1008500054005058BB27AA270E9441040C947705E6
:100860000E94690538F00E94700520F039F49F3F1E
:1008700019F426F40C9466050EF4E095E7FB0C944D
:100880006005E92F0E94880558F3BA1762077307BD
:100890008407950720F079F4A6F50C94AA050EF4C8
:1008A000E0950B2EBA2FA02D0B01B90190010C0180
:1008B000CA01A0011124FF27591B99F0593F50F498
:1008C000503E68F11A16F040A22F232F342F4427F0
:1008D000585FF3CF469537952795A795F0405395E8
:1008E000C9F77EF41F16BA0B620B730B840BBAF0B8
:1008F0009150A1F0FF0FBB1F661F771F881FC2F723
:100900000EC0BA0F621F731F841F48F48795779536
:100910006795B795F7959E3F08F0B0CF9395880FF0
:1009200008F09927EE0F9795879508950E943C054A
:1009300008F481E008950E94AF040C9477050E94AA
:10094000700558F00E94690540F029F45F3F29F0D6
:100950000C94600551110C94AB050C9466050E9433
:10096000880568F39923B1F3552391F3951B550B33
:10097000BB27AA2762177307840738F09F5F5F4F72
:10098000220F331F441FAA1FA9F335D00E2E3AF0B1
:10099000E0E832D091505040E695001CCAF72BD0C9
:1009A000FE2F29D0660F771F881FBB1F261737071A
:1009B0004807AB07B0E809F0BB0B802DBF01FF274C
:1009C00093585F4F3AF09E3F510578F00C946005C4
:1009D0000C94AB055F3FE4F3983ED4F3869577958E
:1009E0006795B795F7959F5FC9F7880F911D969505
:1009F000879597F90895E1E0660F771F881FBB1F61
:100A0000621773078407BA0720F0621B730B840B0D
:100A1000BA0BEE1F88F7E09508950E94900588F0C4
:100A20009F5798F0B92F9927B751B0F0E1F0660FB2
:100A3000771F881F991F1AF0BA95C9F714C0B130F3
:100A400091F00E94AA05B1E008950C94AA05672FC1
:100A5000782F8827B85F39F0B93FCCF38695779522
:100A60006795B395D9F73EF490958095709561950B
:100A70007F4F8F4F9F4F0895990F0008550FAA0B76
:100A8000E0E8FEEF16161706E807F907C0F01216A1
:100A90001306E407F50798F0621B730B840B950BA4
:100AA00039F40A2661F0232B242B252B21F40895F9
:100AB0000A2609F4A140A6958FEF811D811D089596
:100AC00097F99F6780E870E060E008959FEF80EC01
:100AD000089500240A9416161706180609060895A4
:100AE00000240A9412161306140605060895092E0A
:100AF0000394000C11F4882352F0BB0F40F4BF2B79
:100B000011F460FF04C06F5F7F4F8F4F9F4F0895B8
:100B100057FD9058440F551F59F05F3F71F04795AE
:100B2000880F97FB991F61F09F3F79F08795089593
:100B3000121613061406551FF2CF4695F1DF08C0B2
:100B4000161617061806991FF1CF869571056105CF
:100B500008940895E894BB2766277727CB0197F977
:100B600008950E94C4050C9477050E94690538F029
:100B70000E94700520F0952311F00C9460050C94F0
:100B8000660511240C94AB050E94880570F3959FAF
:100B9000C1F3950F50E0551F629FF001729FBB2774
:100BA000F00DB11D639FAA27F00DB11DAA1F649F10
:100BB0006627B00DA11D661F829F2227B00DA11DC3
:100BC000621F739FB00DA11D621F839FA00D611D49
:100BD000221F749F3327A00D611D231F849F600D6A
:100BE000211D822F762F6A2F11249F5750409AF093
:100BF000F1F088234AF0EE0FFF1FBB1F661F771F1F
:100C0000881F91505040A9F79E3F510580F00C94E9
:100C100060050C94AB055F3FE4F3983ED4F38695F2
:100C200077956795B795F795E7959F5FC1F7FE2B89
:100C3000880F911D9695879597F90895A1E21A2E30
:100C4000AA1BBB1BFD010DC0AA1FBB1FEE1FFF1F70
:100C5000A217B307E407F50720F0A21BB30BE40BC0
:100C6000F50B661F771F881F991F1A9469F7609507
:100C70007095809590959B01AC01BD01CF010895C1
:100C80000F931F93CF93DF938230910510F482E08E
:100C900090E0E0916900F0916A0020E030E0A0E08F
:100CA000B0E0309719F140815181028113814817DA
:100CB0005907C8F08417950769F4109731F0129618
:100CC0000C93129713961C9327C0009369001093FE
:100CD0006A0022C02115310519F04217530718F494
:100CE0009A01BD01EF01DF01F801DBCF21153105CC
:100CF000F9F0281B390B2430310580F48A819B815F
:100D00006115710521F0FB019383828304C09093E8
:100D10006A0080936900FE01329644C0FE01E20F32
:100D2000F31F8193919322503109398328833AC06C
:100D30002091670030916800232B41F420916200DC
:100D40003091630030936800209367002091600029
:100D5000309161002115310541F42DB73EB7409126
:100D6000640050916500241B350BE0916700F09101
:100D70006800E217F307A0F42E1B3F0B2817390772
:100D800078F0AC014E5F5F4F2417350748F04E0FE7
:100D90005F1F50936800409367008193919302C056
:100DA000E0E0F0E0CF01DF91CF911F910F91089526
:100DB000CF93DF93009709F481C0FC01329713822F
:100DC0001282A0916900B0916A00109781F420818D
:100DD0003181820F931F209167003091680028179E
:100DE000390751F5F0936800E093670067C0ED01A3
:100DF00020E030E0CE17DF0740F44A815B819E019E
:100E000041155105F1F0EA01F5CFD383C28340814A
:100E10005181840F951FC817D90759F4888199818A
:100E2000840F951F0296918380838A819B8193838F
:100E300082832115310529F4F0936A00E09369005B
:100E40003DC0E901FB83EA8349915991C40FD51F45
:100E5000EC17FD0761F480819181840F951F029644
:100E6000E90199838883828193819B838A83E0E06F
:100E7000F0E012968D919C911397009719F0FD0167
:100E8000DC01F7CF8D919C9111979D012E5F3F4F13
:100E9000820F931F2091670030916800281739074F
:100EA00069F4309729F410926A001092690002C028
:100EB00013821282B0936800A0936700DF91CF91F4
:060EC0000895F894FFCF35
:060EC60000006B0020009B
:00000001FF
